:1000000000308A00E02800000A108A100A118207D6
:1000100044344F344E344734203448344F343A3427
:100020002034203420342034203420342034203430
:100030000A108A100A1182072A34543450342034AA
:1000400048344F34203443344834493420344D3418
:1000500049344E3448342A34253084008313000850
:1000600003193F280630F800F701F70B3528F80B85
:1000700034287B30F700F70B3B28800B3228080030
:10008000831609108312091083168801831223082E
:10009000880083160911831209152130F700F70B28
:1000A0004F2883160911831209111430A5002C2042
:1000B00008001430A5002C208316091183120911A1
:1000C0008316091083120910831689108312891070
:1000D0000130A30040203830A30040200C30A300A2
:1000E00040200630A30040208A110A12FD28831602
:1000F00009108312091483168801831224088800CA
:1001000083160911831209152130F700F70B862891
:1001100083160911831209111430A5002C20080040
:100120002408F8012302031898282308F700A428BC
:10013000F7010830A500A30DF70D24087702031876
:10014000F700F80DA50B9B2808008E30A300402077
:100150001030F700F70BAA2800002108A3000A308E
:10016000A400902030307807A300A4007720210855
:10017000A3000A30A400902030307707A300A40029
:1001800077208B30A30040201030F700F70BC628F3
:1001900000002208A3000A30A40090203030780725
:1001A000A300A40077202208A3000A30A400902016
:1001B00030307707A300A40077208A110A12302973
:1001C00003081F398300831603170908C039890003
:1001D00003131F129F120030031788008312870138
:1001E00088018901831383160313091089100911EB
:1001F000891100308800831259288030A3004020E4
:100200001030F700F70B02290000A00120080F3C76
:10021000031C112920080420A300A4007720A00AB1
:100220000629C030A30040201030F700F70B162934
:100230000000A00120080F3C031C252920081820DD
:10024000A300A4007720A00A1A29A20122083B3C9F
:10025000031C3829A10121083B3C031C3629A52891
:100260005330F700F70B3229A10A2B29A20A2629BD
:0402700025296300D9
:04400E00E22FFF3F5F
:00000001FF
;PIC16F887
;CRC=EBAC  CREATED="08-Jan-19 22:27"
